running 1 test
bitconind started. waiting 1 second to warm up. http://abcd:abcd@localhost:18443
Error: Cannot obtain a lock on data directory /home/donp/.bitcoin/regtest. Bitcoin Core is probably already running.
user public key bcrt1qp7enpavnp9pmm6m6vmjdpr6vvla4awdt2pvw0w public key hash 0fb330f5930943bdeb7a66e4d08f4c67fb5eb9ab p2wpkh signing script Script(OP_DUP OP_HASH160 OP_PUSHBYTES_20 0fb330f5930943bdeb7a66e4d08f4c67fb5eb9ab OP_EQUALVERIFY OP_CHECKSIG)
{"id":"tst","jsonrpc":"1.0","method":"generatetoaddress","params":[100,"bcrt1qp7enpavnp9pmm6m6vmjdpr6vvla4awdt2pvw0w"]} -> ["4e18bc00e202ea99751fe0fb6a5ce9ee01bfa4fbd057731caed176859d6bebfa","11b12ad4c57b85677b4ac9c20f1948c8efa17a7f15b2220d8932efa1db7f6e05","7640ea73533a6f9f9f054c356c55fae293343cc1f040cad429f22be443ee022f","4109d4d8f26ad32adaf33b90ecc8c53db3717e0a56a2ef90db34c80eaa5ae646","67e1e677f1e57f702b3e01a2d589f0731102c4f23c556bedfef15c5c9e4c1fe3","09cdede2ec5610a8ca6f2c77d2c1ae588cfd416999b57dbd9a7d1a550376046a","08e9dd442866a598767a1199810f6b386ed6c3ce8f6685c2ca81f9cbd8f276d6","55f3da04d019e971fa2c30be79ee0e0b631c787805eddaae509247367cbab0a2","032743859a4fa99bd2b48d1c71385964334856b170d4ada175f611d3277448dc","4e5c2699e4b931224402ec512a73940fedd4eceb0e72bd06eeefbfa8063a6937","4f46a66c17ccbdb1099457e940bbaa58324a81eb51f4e9348c22703b32c4002d","6d1409231eef3589d735ffd8e47cf1f50e48235eff2a66b4e0196462c5a65ca0","111f2af06b26c9735adf8368d8fa09424d520775cd571d591b21cd3bbf3d5d6b","032c905a5244e43493864e5bff30730a52e6f07e53de80e88a8bcf570845a7ba","196c329ed84f941b1ea3364bc3655021ede3b794245fa0f5f182c31f18d5ae26","606087a8ff80582c322a7e15ce46fb52c2acaa2afe78c3a821ea02460e12f99b","65199968f4382465ffdceda8c860748d45e31d78052db0229dfcd11148cbff76","1b3ef4e7dcec4afd1aac93bab085f96ee09e612f94b9111e4bdcf7de9aadfaca","28ebefdf28efa729d25b41dc88bdd9395ae0a387a47f058db36f49d2f49e35ed","59aa6a2c4b7f9fddeb8111b2abd2afd3688ac20d221f17c6dc7a9cb9ba85bcbc","07b279755873ef72909334a0e50e84b45e82089032b47b37f5100cc3ea75a929","7aec01ffc46f44f93d31fbe876de9e444f0429c720159a766cf1435444557e74","1e829394c9f72ffdbf4fcc7ceb7c20431b52972ac08c99443ba2d960bccc19b0","58417868bec13548ade37baca039e76a60a2384b17a0dc2d624c87982cbd6395","1c914703b9e97a5977fed4732f8c1805761d245709921b849ad2572051aebe35","00874da6c4afd40b59b5632aa196da26e92b56f60df7a2e1a81fdc46e08397d2","4541b3c6e00c4bf3ce33ad905b3a79c39c4aca8d1c629d04c9645459c76d90d6","13c37fa133dd236c520c1c0ccb93429917e64009288f0ea030d0f80e67fa8919","6895f11566a779120b9be87cb1d8bb98f7bd9dc8dbbdc0cff236c7481ea97e50","78431e1ca81a2d471873b840fd27e96501d3b2181525456b4b9883bd8703ae56","32d918df2450cf587ba4e01900911600f3b17353e69f9c46c421b11d396fcd42","1322f8d19cff3f9895e65b493005e0cf3a51cf42cb8dceb1cf5ca04f07cc010c","37e4dd77b436acfd5b9fc9665b50c4dbc68d251d8e676f99381ecbbb5e66e132","41d3b1465cf4ce4d1768ec4b51440a0332646462679c3d7d49e211fb9bb3ca8f","161bf5d13630fa10feda4c73b14d2f5c250eb72139f90b22210556d6a91bb4a6","5681aa411c589d5a5b914403e5858921f6394785c48b784cf3a98d63a0d5afe6","20ddfb0eaaf74db8769193bc194d98a624955c9baf8023b8c12778692f73be9e","76571e249fb3776c7676c76c828b2154656862880e4d06b8b908f37af0c41916","2cc29866ff49ab8df128f9ad1c8772ce8146bc1dfbb3141d738e70e7d75a2e7f","52db3a22d16f14cfa01aada7663f2103e4719586548d43e5ab2abdae3cd27fa0","4cddddd6d51257d3109402c7a29674bd58e5a9de189c222fffa6e7b5283adbf8","3c1bc62911eb29d7a06de8cf9b8d4610ac81543293cf5831b72d5765dd6d5a1f","78c960f3c9c75add8626cfada15d755379a68ead288c7c18428a88e280658802","22814b418b3594e0e18cb454b8ed75c606c6a9d79ddeb59326f79c5ca777ba99","208b853862e47665f6e5b0e06f28ccc2f5d9333e0b2b2e0b7e402597d0d2deec","5d8c30bb4b818c78b8ddd04f7e338acfd0ceb3bdcfa0fe38a39f5e53d7c53cee","6b85e1356b64021933480910ff5d0b4670db5eb0bc3e92b782e2bfd48be31f83","58ee8c4b83b5bf15f545dd8b97a6be49cf07ecd452f83ed93d301ac80dfa4391","085a08f3f66b8abd5c43f4596973ffdb7562cda9deac19fa5091a65d3b5fbc63","3bb8223541709f8b65b5b56789e6fc732138e263d844565559abb2649d4f6ce1","5438ad259708f32915d9ed60589dd42dfc67869138800ef55324860c6828e9b8","0b149d8e45d95c80f1eaa50358ed9700414416a6735ea6cd5870eccde4cb3404","1816bf6890ace596bbde6a2a1a7c21cb832095d48b996508e199bb769e981739","63b4dc748f5bf4c0c7041c44e8e211550207a1fe72afe0095c385e10687f0c55","741a66c665c84a0b45d6708244e2044b4e8a6bac8f1f272c7e80c819bf0eefce","57e0e287b9fa750d1ea6a15983203b0753a3f1def44096ed9684e2c0f5521404","3d8216cc69a6c96821218093b99d72ed3d2ec84631ac97e006f9eb7eecec9626","09c8e070cebc4084178a842b205d2f263ff5645587441745f0777ddf70fa14e9","13a2ec4b9a54559d01f66dd736c0a139dbf3ba2f192b739e35395983abd1a628","26a110c61e4c5bc92
mined block_id "4e18bc00e202ea99751fe0fb6a5ce9ee01bfa4fbd057731caed176859d6bebfa"
{"id":"tst","jsonrpc":"1.0","method":"getblock","params":["4e18bc00e202ea99751fe0fb6a5ce9ee01bfa4fbd057731caed176859d6bebfa"]} -> {"bits":"207fffff","chainwork":"0000000000000000000000000000000000000000000000000000000000000d64","confirmations":100,"difficulty":4.6565423739069247e-10,"hash":"4e18bc00e202ea99751fe0fb6a5ce9ee01bfa4fbd057731caed176859d6bebfa","height":1713,"mediantime":1678299836,"merkleroot":"5429cb30fb76bf5b76c43e0e5ee20bfd6931d8a1b2d1562e3a8cb3f6955eb917","nTx":1,"nextblockhash":"11b12ad4c57b85677b4ac9c20f1948c8efa17a7f15b2220d8932efa1db7f6e05","nonce":1,"previousblockhash":"363cb6b61291d85a83f0bcbf1a628fa316eca40b914996a1628997499f359cbb","size":251,"strippedsize":215,"time":1678300059,"tx":["5429cb30fb76bf5b76c43e0e5ee20bfd6931d8a1b2d1562e3a8cb3f6955eb917"],"version":536870912,"versionHex":"20000000","weight":896}
mined txid "5429cb30fb76bf5b76c43e0e5ee20bfd6931d8a1b2d1562e3a8cb3f6955eb917"
{"id":"tst","jsonrpc":"1.0","method":"getrawtransaction","params":["5429cb30fb76bf5b76c43e0e5ee20bfd6931d8a1b2d1562e3a8cb3f6955eb917",false,"4e18bc00e202ea99751fe0fb6a5ce9ee01bfa4fbd057731caed176859d6bebfa"]} -> "020000000001010000000000000000000000000000000000000000000000000000000000000000ffffffff0502b1060101ffffffff02be402500000000001600140fb330f5930943bdeb7a66e4d08f4c67fb5eb9ab0000000000000000266a24aa21a9ede2f61c3f71d1defd3fa999dfa36953755c690689799962b48bebd836974e8cf90120000000000000000000000000000000000000000000000000000000000000000000000000"
Transaction { version: 2, lock_time: PackedLockTime(0), input: [TxIn { previous_output: OutPoint { txid: 0000000000000000000000000000000000000000000000000000000000000000, vout: 4294967295 }, script_sig: Script(OP_PUSHBYTES_2 b106 OP_PUSHBYTES_1 01), sequence: Sequence(4294967295), witness: Witness { content: [32, 0, 0, 0, 0, 0, 0, 0, 0, 0, 0, 0, 0, 0, 0, 0, 0, 0, 0, 0, 0, 0, 0, 0, 0, 0, 0, 0, 0, 0, 0, 0, 0], witness_elements: 1, last: 0, second_to_last: 0 } }], output: [TxOut { value: 2441406, script_pubkey: Script(OP_0 OP_PUSHBYTES_20 0fb330f5930943bdeb7a66e4d08f4c67fb5eb9ab) }, TxOut { value: 0, script_pubkey: Script(OP_RETURN OP_PUSHBYTES_36 aa21a9ede2f61c3f71d1defd3fa999dfa36953755c690689799962b48bebd836974e8cf9) }] }
user UTXO with 2441406 sats script_pub_key: OP_0 OP_PUSHBYTES_20 0fb330f5930943bdeb7a66e4d08f4c67fb5eb9ab
peg-in OP_RETURN tx f692ed4ccda22679d3c82cdb5449c65e2a7c05356ad573b6e86249b3c99a21cc
{"id":"tst","jsonrpc":"1.0","method":"decoderawtransaction","params":["0200000000010117b95e95f6b38c3a2e56d1b2a1d83169fd0be25e0e3ec4765bbf76fb30cb29540000000000ffffffff020000000000000000256a2300003c00000000000000000000000000000000000000000000000000000000000000009808000000000000225120f709be0c12951d272473b9b2a54f31fbc56389f3d2c2e30809dfd641ff4d3ee402473044022061b48e58af5a6c0b57d84cf7dd8d2d92d2e342b52ee3110a579b5a6c2c334e8202200288e9c5f3e2c8c0a972a137cb4256e84d87aac27b4824ca1cb9d2a09a9dd7b101140fb330f5930943bdeb7a66e4d08f4c67fb5eb9ab00000000"]} -> {"hash":"9ac2c61332e0e1250986612de4b784a3f719be5b59983837ad22c077327881e4","locktime":0,"size":236,"txid":"f692ed4ccda22679d3c82cdb5449c65e2a7c05356ad573b6e86249b3c99a21cc","version":2,"vin":[{"scriptSig":{"asm":"","hex":""},"sequence":4294967295,"txid":"5429cb30fb76bf5b76c43e0e5ee20bfd6931d8a1b2d1562e3a8cb3f6955eb917","txinwitness":["3044022061b48e58af5a6c0b57d84cf7dd8d2d92d2e342b52ee3110a579b5a6c2c334e8202200288e9c5f3e2c8c0a972a137cb4256e84d87aac27b4824ca1cb9d2a09a9dd7b101","0fb330f5930943bdeb7a66e4d08f4c67fb5eb9ab"],"vout":0}],"vout":[{"n":0,"scriptPubKey":{"asm":"OP_RETURN 00003c0000000000000000000000000000000000000000000000000000000000000000","hex":"6a2300003c0000000000000000000000000000000000000000000000000000000000000000","type":"nulldata"},"value":0.0},{"n":1,"scriptPubKey":{"address":"bcrt1p7uymurqjj5wjwfrnhxe22ne3l0zk8z0n6tpwxzqfmltyrl6d8mjqd7jhzf","asm":"1 f709be0c12951d272473b9b2a54f31fbc56389f3d2c2e30809dfd641ff4d3ee4","hex":"5120f709be0c12951d272473b9b2a54f31fbc56389f3d2c2e30809dfd641ff4d3ee4","type":"witness_v1_taproot"},"value":0.000022}],"vsize":164,"weight":656}
0200000000010117b95e95f6b38c3a2e56d1b2a1d83169fd0be25e0e3ec4765bbf76fb30cb29540000000000ffffffff020000000000000000256a2300003c00000000000000000000000000000000000000000000000000000000000000009808000000000000225120f709be0c12951d272473b9b2a54f31fbc56389f3d2c2e30809dfd641ff4d3ee402473044022061b48e58af5a6c0b57d84cf7dd8d2d92d2e342b52ee3110a579b5a6c2c334e8202200288e9c5f3e2c8c0a972a137cb4256e84d87aac27b4824ca1cb9d2a09a9dd7b101140fb330f5930943bdeb7a66e4d08f4c67fb5eb9ab00000000
{"id":"tst","jsonrpc":"1.0","method":"sendrawtransaction","params":["0200000000010117b95e95f6b38c3a2e56d1b2a1d83169fd0be25e0e3ec4765bbf76fb30cb29540000000000ffffffff020000000000000000256a2300003c00000000000000000000000000000000000000000000000000000000000000009808000000000000225120f709be0c12951d272473b9b2a54f31fbc56389f3d2c2e30809dfd641ff4d3ee402473044022061b48e58af5a6c0b57d84cf7dd8d2d92d2e342b52ee3110a579b5a6c2c334e8202200288e9c5f3e2c8c0a972a137cb4256e84d87aac27b4824ca1cb9d2a09a9dd7b101140fb330f5930943bdeb7a66e4d08f4c67fb5eb9ab00000000"]} -> {"code":-26,"message":"non-mandatory-script-verify-flag (Script failed an OP_EQUALVERIFY operation)"}
peg-out tx
"0000000001cc219ac9b34962e8b673d56a35057c2a5ec64954db2cc8d37926a2cd4ced92f60000000000ffffffff01e8030000000000001600140fb330f5930943bdeb7a66e4d08f4c67fb5eb9ab00000000"
test frost_btc ... ok

test result: ok. 1 passed; 0 failed; 0 ignored; 0 measured; 0 filtered out; finished in 0.84s

     Running tests/pure_frost.rs (/home/donp/projects/stacks/core-eng/target/debug/deps/pure_frost-1e440522081479f6)

running 0 tests

test result: ok. 0 passed; 0 failed; 0 ignored; 0 measured; 1 filtered out; finished in 0.00s

donp@carbon frost-test $ /opt/bitcoin/0.21.1/bin/bitcoin-cli -rpcuser=abcd -rpcpassword=abcd -regtest decoderawtransaction '["0200000000"]'                                                                      
error code: -22
error message:
TX decode failed
donp@carbon frost-test $ /opt/bitcoin/0.21.1/bin/bitcoin-cli -rpcuser=abcd -rpcpassword=abcd -regtest decoderawtransaction '"0200000000"'  
error code: -22
error message:
TX decode failed
donp@carbon frost-test $ /opt/bitcoin/0.21.1/bin/bitcoin-cli -rpcuser=abcd -rpcpassword=abcd -regtest decoderawtransaction '0200000000'  
error code: -22
error message:
TX decode failed
donp@carbon frost-test $ /opt/bitcoin/0.21.1/bin/bitcoin-cli -rpcuser=abcd -rpcpassword=abcd -regtest decoderawtransaction '"020000000001010000000000000000000000000000000000000000000000000000000000000000ffffffff0502540e0101ffffffff022a010000000000001600148bf5a8aaa823dacacda8e4b6472cd505803dc5aa0000000000000000266a24aa21a9ede2f61c3f71d1defd3fa999dfa36953755c690689799962b48bebd836974e8cf90120000000000000000000000000000000000000000000000000000000000000000000000000"'  
error code: -22
error message:
TX decode failed
donp@carbon frost-test $ /opt/bitcoin/0.21.1/bin/bitcoin-cli -rpcuser=abcd -rpcpassword=abcd -regtest decoderawtransaction '"020000000001010000000000000000000000000000000000000000000000000000000000000000ffffffff0502540e0101ffffffff022a010000000000001600148bf5a8aaa823dacacda8e4b6472cd505803dc5aa0000000000000000266a24aa21a9ede2f61c3f71d1defd3fa999dfa36953755c690689799962b48bebd836974e8cf90120000000000000000000000000000000000000000000000000000000000000000000000000"'
error code: -22
error message:
TX decode failed
donp@carbon frost-test $ /opt/bitcoin/0.21.1/bin/bitcoin-cli -rpcuser=abcd -rpcpassword=abcd -regtest decoderawtransaction "020000000001010000000000000000000000000000000000000000000000000000000000000000ffffffff0502540e0101ffffffff022a010000000000001600148bf5a8aaa823dacacda8e4b6472cd505803dc5aa0000000000000000266a24aa21a9ede2f61c3f71d1defd3fa999dfa36953755c690689799962b48bebd836974e8cf90120000000000000000000000000000000000000000000000000000000000000000000000000"  
{
  "txid": "5f976c5de2f9351860ca05805f54aca6aeb212da59a566ecf2dcd97968a1c697",
  "hash": "a94e1eb3586683a15e34399081d51ac883c9d80df90f703552d17fd6cdbba519",
  "version": 2,
  "size": 170,
  "vsize": 143,
  "weight": 572,
  "locktime": 0,
  "vin": [
    {
      "coinbase": "02540e0101",
      "txinwitness": [
        "0000000000000000000000000000000000000000000000000000000000000000"
      ],
      "sequence": 4294967295
    }
  ],
  "vout": [
    {
      "value": 0.00000298,
      "n": 0,
      "scriptPubKey": {
        "asm": "0 8bf5a8aaa823dacacda8e4b6472cd505803dc5aa",
        "hex": "00148bf5a8aaa823dacacda8e4b6472cd505803dc5aa",
        "address": "bcrt1q3066324gy0dv4ndgujmywtx4qkqrm3d2y2tr99",
        "type": "witness_v0_keyhash"
      }
    },
    {
      "value": 0.00000000,
      "n": 1,
      "scriptPubKey": {
        "asm": "OP_RETURN aa21a9ede2f61c3f71d1defd3fa999dfa36953755c690689799962b48bebd836974e8cf9",
        "hex": "6a24aa21a9ede2f61c3f71d1defd3fa999dfa36953755c690689799962b48bebd836974e8cf9",
        "type": "nulldata"
      }
    }
  ]
}
donp@ca
